:100000000C948C000C949A040C9473040C94B4001B
:100010000C94B4000C94B4000C94B4000C94B40090
:100020000C94B4000C94B4000C94B4000C94B40080
:100030000C94B4000C94B4000C94B4000C94B40070
:100040000C9429040C94B4000C94F7030C94D10381
:100050000C94B4000C94B4000C94B4000C94B40050
:100060000C94B4000C94B40000000000230026009F
:10007000290000000008000201000003040700003E
:1000800000000000000072656369657665643D00EC
:1000900048616E646C65722063616C6C65642E00EF
:1000A00000000000250028002B00000000002400B4
:1000B00027002A00040404040404040402020202C7
:1000C000020203030303030301020408102040801B
:1000D00001020408102001020408102054656D700C
:1000E000657261747572653A20004465636F646976
:1000F0006E67206572726F722E0048756D69646953
:1001000074793A20004465636F64696E6720657294
:10011000726F722E0000D90611241FBECFEFD8E0F7
:10012000DEBFCDBF11E0A0E0B1E0EAE8F2E102C03D
:1001300005900D92AE33B107D9F725E0AEE3B1E0FB
:1001400001C01D92AF3EB207E1F710E0CCE8D0E06D
:1001500004C02197FE010E943809CB38D107C9F7A6
:100160000E94C1040C9443090C9400000895CF929E
:10017000DF92EF92FF920F931F93CF93DF936C0167
:100180007A018B01C0E0D0E0CE15DF0581F0D80107
:100190006D918D01D601ED91FC910190F081E02DE2
:1001A000C6010995892B11F02196EECF7E01C7017A
:1001B000DF91CF911F910F91FF90EF90DF90CF9043
:1001C0000895089580E090E00895FC01538D448DDA
:1001D000252F30E0842F90E0821B930B541710F0F2
:1001E000CF96089501970895FC01918D828D9817FF
:1001F00061F0828DDF01A80FB11D5D968C91928D0B
:100200009F5F9F73928F90E008958FEF9FEF089507
:10021000FC01918D828D981731F0828DE80FF11DD0
:10022000858D90E008958FEF9FEF0895FC01918DEB
:10023000228D892F90E0805C9F4F821B91098F73E4
:100240009927089582E595E00E94160121E0892B07
:1002500009F420E0822F0895FC01848DDF01A80FAE
:10026000B11DA35ABF4F2C91848D90E001968F73DE
:100270009927848FA689B7892C93A089B1898C91FD
:10028000837080648C93938D848D981306C002884C
:10029000F389E02D80818F7D80830895EF92FF9216
:1002A0000F931F93CF93DF93EC0181E0888F9B8D99
:1002B0008C8D981305C0E889F989808185FD26C059
:1002C000F62E0B8D10E00F5F1F4F0F731127E02EDE
:1002D0008C8DE8120CC00FB607FCFACFE889F989BB
:1002E000808185FFF5CFCE010E942C01F1CF8B8D4F
:1002F000FE01E80FF11DE35AFF4FF0829FB7F8941B
:100300000B8FEA89FB89808180620AC09FB7F894CD
:10031000EE89FF896083E889F98980818370806430
:1003200080839FBF81E090E0DF91CF911F910F917B
:10033000FF90EF9008950F931F93CF93DF938C015D
:10034000C0E0D0E0F801EC0FFD1F6491662341F09E
:1003500082E595E00E944E01892B11F02196F2CFA3
:10036000CE01DF91CF911F910F910895CF93DF932D
:10037000EC01888D8823C9F0EA89FB89808185FD9D
:1003800005C0A889B9898C9186FD0FC00FB607FCFE
:10039000F5CF808185FFF2CFA889B9898C9185FF3F
:1003A000EDCFCE010E942C01E7CFDF91CF910895D0
:1003B00080E090E0892B29F00E94220181110C94A9
:1003C000000008953FB7F89480914B0190914C0143
:1003D000A0914D01B0914E0126B5A89B05C02F3FBD
:1003E00019F00196A11DB11D3FBFBA2FA92F982F5B
:1003F0008827820F911DA11DB11DBC01CD0142E0D6
:10040000660F771F881F991F4A95D1F708959C01A1
:100410002D523140273C310530F49B0129573109D9
:10042000273C310590F089579109873C910580F46C
:100430006D52714081E090E0673C710510F480E0FE
:1004400090E0919581959109089581E090E008955B
:100450008FEF9FEF0895009769F0FC010190002055
:10046000E9F73197AF01481B590BBC0182E595E0D4
:100470000C94B70080E090E008958F929F92AF9225
:10048000BF920F931F93CF93DF93CDB7DEB7A197A2
:100490000FB6F894DEBF0FBECDBF19A2423008F4EC
:1004A0004AE08E010F5D1F4F842E912CA12CB12CA0
:1004B000A50194010E941609E62FB901CA01015055
:1004C0001109EA3014F4E05D01C0E95CD801EC9355
:1004D000232B242B252B61F7C8010E942B02A19608
:1004E0000FB6F894DEBF0FBECDBFDF91CF911F9145
:1004F0000F91BF90AF909F908F900895CF92DF9211
:10050000EF92FF92CF93DF936B017C016DE282E566
:1005100095E00E944E01EC0166277727CB016C190C
:100520007D098E099F094AE00E943D028C0F9D1FA4
:10053000DF91CF91FF90EF90DF90CF900895CF9310
:10054000DF930E949B01EC0186E191E00E942B0267
:100550008C0F9D1FDF91CF910895CF92DF92EF9284
:10056000FF9280E990E00E949F0286E890E00E945E
:100570009B016091510570E080E090E04AE00E94AC
:100580003D0286E191E00E942B028091510581118C
:10059000F7C00E94E201C0904201D0904301E09078
:1005A0004401F09045019B01AC012C193D094E0915
:1005B0005F096093420170934301809344019093DB
:1005C00045018091400190914101019699279093B6
:1005D000410180934001FC01EE0FFF1FEE0FFF1F52
:1005E000E15BFE4F20833183428353839C0128507B
:1005F0003109FC01FF27EE0FFF1FEE0FFF1FE15B2C
:10060000FE4F4081518162817381FC01E150FF4FB7
:10061000FF27EE0FFF1FEE0FFF1FE15BFE4FC080B5
:10062000D180E280F380E4EFCE1AE1E0DE0AE10857
:10063000F108E9ECCE16D104E104F10408F0A0C001
:10064000445F514061097109493C510561057105DB
:1006500008F096C002972817390759F6F901FF27C5
:10066000EE0FFF1FEE0FFF1FE15BFE4F80819181B8
:10067000A281B38188509740A109B109813293408A
:10068000A105B10508F07CC0E5E7F0E08491EBEC52
:10069000F0E09491E7EBF0E0E491EE2309F470C010
:1006A000882339F1833091F038F48130A9F0823019
:1006B00001F584B58F7D12C0873091F08830A1F0AC
:1006C0008430B9F4809180008F7D03C080918000D8
:1006D0008F77809380000DC084B58F7784BD09C06B
:1006E0008091B0008F7703C08091B0008F7D8093A0
:1006F000B000F0E0EE0FFF1FE859FF4FA591B49155
:10070000EC91E923E9F180913E0190913F0101963E
:1007100090933F0180933E018130910559F480917F
:100720004001909141010196992790935005809343
:100730004F0526C0029721F510923F0110923E010D
:1007400080914001909141010196992720914F0598
:10075000309150058217930720F4821B930B9395D9
:1007600002C0821B930B8A37910539F01092510514
:100770001092500510924F0503C081E080935105FF
:10078000FF90EF90DF90CF900895BC01990F880BF8
:10079000990B97FD0C947E024AE00C943D020E9456
:1007A0003E091F920F920FB60F9211242F933F9381
:1007B0004F935F936F937F938F939F93AF93BF9369
:1007C000EF93FF9382E595E00E942C01FF91EF915A
:1007D000BF91AF919F918F917F916F915F914F9159
:1007E0003F912F910F900FBE0F901F9018951F9261
:1007F0000F920FB60F9211242F938F939F93EF9325
:10080000FF93E0916205F09163058081E0916805B6
:10081000F091690582FD12C0908180916B058F5F18
:100820008F7320916C05821751F0E0916B05F0E019
:10083000EE5AFA4F958F80936B0501C08081FF912E
:10084000EF919F918F912F910F900FBE0F901F905E
:1008500018951F920F920FB60F9211242F933F936A
:100860008F939F93AF93BF938091470190914801DD
:10087000A0914901B0914A013091460123E0230F34
:100880002D3720F40196A11DB11D05C026E8230FC8
:100890000296A11DB11D20934601809347019093BC
:1008A0004801A0934901B0934A0180914B01909176
:1008B0004C01A0914D01B0914E010196A11DB11DB9
:1008C00080934B0190934C01A0934D01B0934E0146
:1008D000BF91AF919F918F913F912F910F900FBE3C
:1008E0000F901F9018951F920F920FB60F92112420
:1008F0002F933F934F935F936F937F938F939F9328
:10090000AF93BF93EF93FF93E0910201F091030146
:100910000995FF91EF91BF91AF919F918F917F9139
:100920006F915F914F913F912F910F900FBE0F905C
:100930001F9018951F920F920FB60F9211242F93AC
:100940003F934F935F936F937F938F939F93AF9357
:10095000BF93EF93FF93E0910001F091010109959E
:10096000FF91EF91BF91AF919F918F917F916F9187
:100970005F914F913F912F910F900FBE0F901F905D
:100980001895789484B5826084BD84B5816084BDF7
:1009900085B5826085BD85B5816085BD80916E001D
:1009A000816080936E00109281008091810082604E
:1009B000809381008091810081608093810080918B
:1009C00080008160809380008091B100846080937A
:1009D000B1008091B00081608093B00080917A0076
:1009E000846080937A0080917A00826080937A009C
:1009F00080917A00816080937A0080917A0080688B
:100A000080937A001092C100E0916205F091630535
:100A100082E08083E0915E05F0915F051082E091B5
:100A20006005F091610580E1808310926A05E09194
:100A30006605F091670586E08083E0916405F0919A
:100A40006505808180618083E0916405F091650592
:100A5000808188608083E0916405F09165058081E4
:100A600080688083E0916405F091650580818F7DC9
:100A7000808389E191E00E942B0286E191E00E944F
:100A80002B02EBECF0E02491E7EBF0E0849188237B
:100A9000C1F090E0880F991FFC01E655FF4FC5910A
:100AA000D491FC01E056FF4FA591B4919FB7F89403
:100AB0008881E22FE0958E2388838C91E823EC9344
:100AC0009FBF8DEA92E09093030180930201809191
:100AD0006900837F846080936900E99ACDEA2C2EB7
:100AE000C2E03C2EDAE04D2E512C612C712C80910D
:100AF0005105882309F45AC1E99886EB90E0909358
:100B0000030180930201C0914F05D09150058E01E1
:100B1000005C1F4F1127E296DD27B12CC12CD12C90
:100B200076010C171D0751F1FE013196FF27EE0FDC
:100B3000FF1FEE0FFF1FE15BFE4F60817181FE0121
:100B4000EE0FFF1FEE0FFF1FE15BFE4F80819181D3
:100B50000E940702CC0CDD1CEE1CFF1CAC01092E10
:100B6000000C660B770BC40ED51EE61EF71E97FF12
:100B700002C0BB24B3942296DD27D3CFBB2029F03B
:100B800085E091E00E949F020DC08AEF90E00E94F4
:100B90009B014AE0C701B6010E943D0283E391E058
:100BA0000E942B02C0914F05D09150055E0190E547
:100BB000A90EB11CBB248E01085B1F4F1127C12C4D
:100BC000D12C7601912CA016B10659F1F80131967D
:100BD000FF27EE0FFF1FEE0FFF1FE15BFE4F60814F
:100BE0007181F801EE0FFF1FEE0FFF1FE15BFE4F5B
:100BF000808191810E940702CC0CDD1CEE1CFF1C41
:100C0000AC01092E000C660B770BC40ED51EE61E38
:100C1000F71E97FF02C0992493940E5F1F4F112770
:100C2000D2CF8E01005A1F4F1127CE5ADF4FDD273A
:100C30000C171D0749F1FE013196FF27EE0FFF1F2C
:100C4000EE0FFF1FE15BFE4F60817181FE01EE0F31
:100C5000FF1FEE0FFF1FE15BFE4F808191810E941D
:100C60000702CC0CDD1CEE1CFF1CAC01092E000C95
:100C7000660B770BC40ED51EE61EF71E97FF02C04B
:100C8000992493942296D3CF992029F08AEE90E06C
:100C90000E949F0253C08CED90E00E949B01C7010F
:100CA000B601745081099109A30192010E941609AD
:100CB000CA01B9010E941B0823E333E343EF5FE35A
:100CC0000E94070720E030E040E05FE30E94070752
:100CD0006B017C010E94E507CB010E94C50360EB1C
:100CE00082E595E00E944E0188E391E00E942B028C
:100CF00020E030E040E151E4C701B6010E94A908BC
:100D000020E030E040EA50E40E94730720E030E049
:100D100040E052E40E9407070E94E507CB010E94D1
:100D2000C50360EB82E595E00E944E018BE391E004
:100D30000E942B0286E191E00E942B020E94E201B8
:100D40004B015C0188EEC82E83E0D82EE12CF12CFB
:100D50000E94E201DC01CB0188199909AA09BB09AB
:100D6000883E9340A105B10598F321E0C21AD1084D
:100D7000E108F10888EE880E83E0981EA11CB11CE2
:100D8000C114D104E104F10419F710925105109235
:100D9000500510924F05309203012092020180917C
:100DA0006900837F846080936900E99A0E94D8017A
:100DB0009ECEE2E5F5E01382128288EE93E0A0E099
:100DC000B0E084839583A683B78388E091E0918324
:100DD000808385EC90E09587848784EC90E097870A
:100DE000868780EC90E0918B808B81EC90E0938BF8
:100DF000828B82EC90E0958B848B86EC90E0978BD5
:100E0000868B118E128E138E148E08955058BB2728
:100E1000AA270E941E070C946F080E94610838F0F0
:100E20000E94680820F039F49F3F19F426F40C94CE
:100E30005E080EF4E095E7FB0C945808E92F0E9439
:100E4000800858F3BA17620773078407950720F0E4
:100E500079F4A6F50C94A2080EF4E0950B2EBA2FA7
:100E6000A02D0B01B90190010C01CA01A0011124B0
:100E7000FF27591B99F0593F50F4503E68F11A165C
:100E8000F040A22F232F342F4427585FF3CF4695ED
:100E900037952795A795F0405395C9F77EF41F160F
:100EA000BA0B620B730B840BBAF09150A1F0FF0FD9
:100EB000BB1F661F771F881FC2F70EC0BA0F621FC5
:100EC000731F841F48F4879577956795B795F795B5
:100ED0009E3F08F0B0CF9395880F08F09927EE0F4A
:100EE0009795879508950E9487070C946F080E9434
:100EF000680858F00E94610840F029F45F3F29F02B
:100F00000C94580851110C94A3080C945E080E948C
:100F1000800868F39923B1F3552391F3951B550B82
:100F2000BB27AA2762177307840738F09F5F5F4FBC
:100F3000220F331F441FAA1FA9F335D00E2E3AF0FB
:100F4000E0E832D091505040E695001CCAF72BD013
:100F5000FE2F29D0660F771F881FBB1F2617370764
:100F60004807AB07B0E809F0BB0B802DBF01FF2796
:100F700093585F4F3AF09E3F510578F00C94580813
:100F80000C94A3085F3FE4F3983ED4F386957795DD
:100F90006795B795F7959F5FC9F7880F911D96954F
:100FA000879597F90895E1E0660F771F881FBB1FAB
:100FB000621773078407BA0720F0621B730B840B58
:100FC000BA0BEE1F88F7E09508950E94EC0768942D
:100FD000B1110C94A30808950E94880888F09F57C7
:100FE00098F0B92F9927B751B0F0E1F0660F771F4D
:100FF000881F991F1AF0BA95C9F714C0B13091F043
:101000000E94A208B1E008950C94A208672F782FDF
:101010008827B85F39F0B93FCCF386957795679507
:10102000B395D9F73EF490958095709561957F4F73
:101030008F4F9F4F0895E89409C097FB3EF4909519
:101040008095709561957F4F8F4F9F4F9923A9F0A1
:10105000F92F96E9BB279395F69587957795679530
:10106000B795F111F8CFFAF4BB0F11F460FF1BC074
:101070006F5F7F4F8F4F9F4F16C0882311F096E907
:1010800011C0772321F09EE8872F762F05C06623B5
:1010900071F096E8862F70E060E02AF09A95660F6E
:1010A000771F881FDAF7880F9695879597F9089527
:1010B00097F99F6780E870E060E008959FEF80EC0B
:1010C000089500240A9416161706180609060895AE
:1010D00000240A9412161306140605060895092E14
:1010E0000394000C11F4882352F0BB0F40F4BF2B83
:1010F00011F460FF04C06F5F7F4F8F4F9F4F0895C3
:1011000057FD9058440F551F59F05F3F71F04795B8
:10111000880F97FB991F61F09F3F79F0879508959D
:10112000121613061406551FF2CF4695F1DF08C0BC
:10113000161617061806991FF1CF869571056105D9
:1011400008940895E894BB2766277727CB0197F981
:1011500008950E94BC080C946F080E94610838F042
:101160000E94680820F0952311F00C9458080C9404
:101170005E0811240C94A3080E94800870F3959FC8
:10118000C1F3950F50E0551F629FF001729FBB277E
:10119000F00DB11D639FAA27F00DB11DAA1F649F1A
:1011A0006627B00DA11D661F829F2227B00DA11DCD
:1011B000621F739FB00DA11D621F839FA00D611D53
:1011C000221F749F3327A00D611D231F849F600D74
:1011D000211D822F762F6A2F11249F5750409AF09D
:1011E000F1F088234AF0EE0FFF1FBB1F661F771F29
:1011F000881F91505040A9F79E3F510580F00C94F4
:1012000058080C94A3085F3FE4F3983ED4F3869506
:1012100077956795B795F795E7959F5FC1F7FE2B93
:10122000880F911D9695879597F90895A1E21A2E3A
:10123000AA1BBB1BFD010DC0AA1FBB1FEE1FFF1F7A
:10124000A217B307E407F50720F0A21BB30BE40BCA
:10125000F50B661F771F881F991F1A9469F7609511
:101260007095809590959B01AC01BD01CF010895CB
:10127000EE0FFF1F0590F491E02D099481E090E0BE
:0A128000F8940C944309F894FFCF92
:10128A00B600B600000000004E01B700E500B60146
:10129A001601F40008010D0A0048756D6964697445
:1012AA007920646973706C61792053746172746512
:0E12BA00642E0025202F2000432F0046000048
:00000001FF
